:020000040800F2
:10000000780B0020CD010008310D0008D50B000849
:100010002D0D0008190300084B1200080000000015
:10002000000000000000000000000000A10F000818
:100030001D030008000000007D0F000801110008EA
:10004000E7010008E7010008E7010008E7010008F0
:10005000E7010008E7010008E7010008E7010008E0
:10006000E7010008E7010008E7010008E7010008D0
:10007000E7010008E7010008E7010008E7010008C0
:10008000E7010008E7010008E7010008E7010008B0
:10009000E7010008E7010008E7010008E7010008A0
:1000A000E7010008E7010008E7010008E701000890
:1000B000E7010008E7010008E7010008E701000880
:1000C000E7010008E7010008E7010008E701000870
:1000D000E701000865110008E7010008E7010008D2
:1000E000E7010008E7010008E7010008E701000850
:1000F000E7010008E7010008E7010008E701000840
:10010000E7010008E7010008E7010008E70100082F
:10011000E7010008E7010008E7010008E70100081F
:10012000E7010008E7010008E7010008E70100080F
:1001300000F002F800F03AF80AA090E8000C8244BF
:100140008344AAF10107DA4501D100F02FF8AFF29C
:10015000090EBAE80F0013F0010F18BFFB1A43F0A5
:1001600001031847F83A0000183B0000103A24BF7A
:1001700078C878C1FAD8520724BF30C830C144BF0C
:1001800004680C607047000000230024002500264E
:10019000103A28BF78C1FBD8520728BF30C148BFEA
:1001A0000B6070471FB51FBD10B510BD00F06EF895
:1001B0001146FFF7F7FF01F0A3F800F0A0F803B431
:1001C000FFF7F2FF03BC01F042F800000948804746
:1001D00009480047FEE7FEE7FEE7FEE7FEE7FEE729
:1001E000FEE7FEE7FEE7FEE704480549054A064B41
:1001F0007047000005110008310100087805002053
:10020000780B002078070020780700207047000056
:100210000FB4044910B503AA029800F009F810BC05
:100220005DF814FB1C000020704770477047704752
:10023000074B70B50D467B4400F011F80446284684
:1002400000F020F810B14FF0FF3070BD204670BDB7
:10025000AB10000001694A1C02610878704700B5C4
:100260008FB0CDE901310021059105497944CDE9EF
:1002700003101146684600F02EF80FB000BD0000D4
:10028000E5FFFFFF007B00F080007047754600F03F
:100290003FF8AE4605006946534620F00700854604
:1002A00018B020B5FFF7A0FFBDE820404FF00006D2
:1002B0004FF000074FF000084FF0000B21F007014E
:1002C000AC46ACE8C009ACE8C009ACE8C009ACE891
:1002D000C0098D4670472DE9F04106460024D6E955
:1002E0000170F5688046304603E04146B847641C1B
:1002F0003046A8470028F8D12046BDE8F08110B567
:100300000446AFF300802046BDE81040FFF757BF1A
:10031000004870471805002000BFFEE770472DE930
:10032000F04102460025002600200023002400277B
:1003300091F803C00CF00F0591F803C00CF0100CFD
:10034000BCF1000F03D091F802C04CEA050591F80A
:1003500000C0BCF1000F31D0146800202BE04FF03A
:10036000010C0CFA00F3B1F800C00CEA03069E423F
:1003700020D183004FF00F0C0CFA03F7BC4305FAB1
:1003800003FC4CEA040491F803C0BCF1280F06D129
:100390004FF0010C0CFA00FCC2F814C00AE091F80E
:1003A00003C0BCF1480F05D14FF0010C0CFA00FC62
:1003B000C2F810C0401C0828D1D31460B1F800C0A6
:1003C000BCF1FF0F34DD546800202EE000F1080C72
:1003D0004FF0010808FA0CF3B1F800C00CEA03066C
:1003E0009E4221D183004FF00F0C0CFA03F7BC435F
:1003F00005FA03FC4CEA040491F803C0BCF1280F91
:1004000005D100F1080C08FA0CF8C2F8148091F834
:1004100003C0BCF1480F07D100F1080C4FF00108F0
:1004200008FA0CF8C2F81080401C0828CED354609B
:10043000BDE8F081416170470161704730B5024607
:10044000002110E0002008E0094C648A01FB04034D
:10045000074D2D68EA54441CA0B2054C648A8442BE
:10046000F2DC4C1CA1B2024CA48A8C42EADC30BD06
:10047000380000202DE9F04106464FF080080025A5
:100480001EE005F1B001C8B2002100F031FD0021ED
:10049000084600F02DFD0021102000F029FD002469
:1004A0000AE0C5F1070000EBC400375C01213846C3
:1004B00000F01EFD601CC4B24445F2DB681CC5B2EE
:1004C000082DDEDBBDE8F0812DE9FC4F07468846AC
:1004D00092461D46DDF82CB040488088B84203DBC8
:1004E0003E48C088404501DABDE8FC8FA988CA179C
:1004F00001EB5272D2100846CB1701EB5373DB109D
:10050000A1EBC3030BB1012300E000231A44EB88E5
:100510005A4392B20092AAF12000009A50430190EF
:100520002968019801EB0009002652E0002441E00F
:100530004FF6FF70834514D1E11704EB5171C910D8
:10054000A4EBC1028021114199F80020114029B388
:1005500008EB060291B23A1990B20C9A00F094FAA4
:100560001CE0E11704EB5171C910A4EBC10280211A
:10057000114199F80020114041B108EB060291B2F7
:100580003A1990B20C9A00F07FFA07E008EB0602E5
:1005900091B23A1990B25A4600F076FAE11704EB9C
:1005A0005171C910A4EBC101072901D109F1010959
:1005B000601C84B2A888A042BADCA888C11700EBEE
:1005C0005171C910A0EBC10109B109F10109701CF9
:1005D00086B2E888B042A9DC00BF85E73800002079
:1005E0002DE9F84F05460E4691469B4600244F469E
:1005F000C9F1010A6C488088A84203DB6A48C088B8
:10060000B04204DA69A0FFF703FEBDE8F88FC5E049
:100610000A98002850D10120F21991B22A190090AD
:1006200090B25A460B9B00F045F90120321991B265
:10063000EA19009090B25A460B9B00F03BF901205A
:10064000F21991B22A1B009090B25A460B9B00F00F
:1006500031F90120321991B2EA1B009090B25A464A
:100660000B9B00F027F90120F21B91B22A1B00908E
:1006700090B25A460B9B00F01DF90120321B91B23B
:10068000EA1B009090B25A460B9B00F013F9012030
:10069000F21B91B22A19009090B25A460B9B00F0BF
:1006A00009F90120321B91B2EA19009090B25A4622
:1006B0000B9B00F0FFF862E00A9801285FD1A0468A
:1006C0005BE0012006EB080291B22A19009090B27B
:1006D0005A460B9B00F0EEF80120321991B205EB5F
:1006E0000802009090B25A460B9B00F0E3F80120FC
:1006F00006EB080291B22A1B009090B25A460B9B5F
:1007000000F0D8F80120321991B2A5EB0802009050
:1007100090B25A460B9B00F0CDF80120A6EB0802E0
:1007200091B22A1B009090B25A460B9B00F0C2F87F
:100730000120321B91B2A5EB0802009090B25A46FC
:100740000B9B00F0B7F80120A6EB080291B22A1922
:10075000009090B25A460B9B00F0ACF80120321B7F
:1007600091B205EB0802009090B25A460B9B00F044
:10077000A1F808F101001FFA80F8B845A1DDBAF12F
:10078000000F03DA6000C01C824405E0E01B40005B
:10079000401D8244781E87B2601C84B2A7423FF796
:1007A00037AF00BF31E70000380000204552523A11
:1007B000636972636C652063656E74657220706F27
:1007C000696E74206F7574206F662073637265653F
:1007D0006E2061726561210D0A0000002DE9F04F65
:1007E00086B004460D4616461F46A0460595301BAA
:1007F00001D4301B00E0A01B0490781B01D4781BAF
:1008000000E0E81B82460498A0EB0A09B44202DD2E
:100810004FF0FF3000E001200290BD4202DD4FF0BA
:10082000FF3000E0012001904FF0000B00BF0BF102
:10083000010B119801280ED103209BFBF0F100FB66
:1008400011B040B9012000904046DDE90F23059921
:1008500000F030F809E0119838B9012000904046C6
:10086000DDE90F23059900F025F8B04503D105987F
:10087000B84200D119E04FEA49000390CAF10001E3
:100880000398884205DBA9EB0A09029840441FFA45
:1008900080F8DDE903018842C9DC049881440199AC
:1008A0000598084480B20590C1E700BF06B0BDE8D6
:1008B000F08F00002DE9F0470746884691461C4618
:1008C000DDF820A024488088B84203DB2248C08895
:1008D000404501DABDE8F087BAF1010F23D10025C8
:1008E0001CE0002613E07819001B03D408EB060077
:1008F000001B00D50FE008EB0602121B91B27A191B
:10090000121B90B24A4600F0BFF8701C06B260009D
:10091000401EB042E7DC00BF681C05B26000401E0C
:10092000A842DEDC15E0002511E000260BE008EB14
:100930000602521E91B27A19521E90B24A4600F037
:10094000A3F8701C06B2A642F1DB681C05B2A542F2
:10095000EBDB00BFBEE70000380000202DE9FE4FB2
:1009600081460F4692469846DDE90DB50C9C284815
:10097000808848450BDB2648C088B84207DB2448FE
:100980008088504503DB2248C088404501DABDE835
:10099000FE8FBBF1010F10D13E460BE00020334625
:1009A00052463146CDE9004502904846FFF716FF12
:1009B000701C86B24645F1DB27E000203B465246DC
:1009C0003946CDE9004502904846FFF707FF002071
:1009D00043464A463946CDE9004502904846FFF76E
:1009E000FDFE0020434652463946CDE900450290BF
:1009F0005046FFF7F3FE0020434652464146CDE9FC
:100A0000004502904846FFF7E9FE00BFBFE700003F
:100A1000380000202DE9FC4F0746884615461C4645
:100A2000DDE90BAB3E46C14620E0A08830441249C8
:100A30008988884204DD3E46E08848441FFA80F9F0
:100A4000E08848440C49C988884203DDC146A08833
:100A5000304486B2CDE900AB15F8012B2346494658
:100A60003046FFF731FDA088304486B22878002850
:100A7000DBD1BDE8FC8F0000380000200149086090
:100A800070470000380000202DE9F04103460C4675
:100A900017464F4EB6889E4203DB4D4EF688A6425F
:100AA00001DABDE8F0814A4EF6893EB15A2E08D0EF
:100AB000B42E0DD0B6F5877F1CD114E01846214620
:100AC00019E0434E3689361B761EB0B2194612E045
:100AD0003F4E3689F61A761EB0B23D4E7689361BE9
:100AE000761EB1B207E02046394E7689F61A761E98
:100AF000B1B200E0D5E700BF354E368A36B1012EDF
:100B000005D0022E09D0032E18D10CE017E0304E8C
:100B10003689361A761EB0B211E02D4E7689761AD5
:100B2000761EB1B20BE02A4E3689361A761EB0B266
:100B3000274E7689761A761EB1B200E0B1E700BF83
:100B4000234E3689864203DB214E76898E4200DAB7
:100B5000A7E706464FEAE07C00EB5C7C4FEAEC0C32
:100B6000DFF86C80B8F8128001FB08C2184E3668B6
:100B7000B55CAFB906464FEAE07C00EB5C7C4FEA1F
:100B8000EC0CA0EBCC084FF0800C4CFA08FC25EAEA
:100B90000C0CDFF83C80D8F8008008F802C014E0A4
:100BA00006464FEAE07C00EB5C7C4FEAEC0CA0EBE5
:100BB000CC084FF0800C4CFA08FC4CEA050CDFF82E
:100BC0001080D8F8008008F802C000BF69E7000074
:100BD0003800002000BFFEE710B580210A48FFF76B
:100BE0002BFC20210848FFF727FC00F055F8802156
:100BF0000548FFF71FFC00F04FF820210248FFF7DF
:100C000019FC00F049F810BD0008014010B5802122
:100C10000648FFF70FFC20210448FFF70DFC00F009
:100C20003BF880210148FFF707FC10BD0008014098
:100C300010B580210848FFF7FFFB00F02DF82021B8
:100C40000548FFF7F9FB00F027F820210248FFF7DD
:100C5000F1FB00F021F810BD0008014008B5A0200C
:100C6000ADF8000014208DF8030003208DF8020079
:100C700069460848FFF753FBA0210648FFF7DCFB55
:100C800010210448FFF7D6FB08210248FFF7D2FBEA
:100C900008BD000000080140032000BF011EA0F1B4
:100CA0000102D0B2FAD170472DE9F0410646069F05
:100CB00000201D4C20602046066001814281878112
:100CC0000C464FEAE17C01EB5C7C4FEAEC0CA1EBBB
:100CD000CC0CBCF1000F07D10D464FEAE57C05EBCB
:100CE0005C7C4FEAEC0C08E008464FEAE17C01EB43
:100CF0005C7C4FEAEC0C0CF1010CDFF82C80A8F8BE
:100D000012C040468282C3810120444620820BB13A
:100D1000B42B03D104488180C28002E00248828063
:100D2000C180BDE8F08100003800002000BFFEE770
:100D3000704770B58026002419E004F1B001C8B2F4
:100D4000002100F0D5F80021084600F0D1F800217C
:100D5000102000F0CDF8002505E00121002000F072
:100D6000C7F8681CC5B2B542F7DB601CC4B2082CDA
:100D7000E3DB70BD10B504461CB90021A62000F0CD
:100D8000B7F8012C03D10021A72000F0B1F810BD65
:100D900010B504463CB90021C02000F0A9F800219C
:100DA000A12000F0A5F8012C07D10021C82000F0F7
:100DB0009FF80021A02000F09BF810BD08B501218C
:100DC000042000F0DDF80121102000F0D9F81C20EB
:100DD000ADF8000010208DF8030003208DF802000C
:100DE00069464148FFF79BFA1C213F48FFF724FB67
:100DF0004FF40050ADF8000010208DF803000320E0
:100E00008DF8020069463948FFF789FAFFF726FF97
:100E100004213548FFF710FBC82000F03DFA0421FB
:100E20003148FFF707FBC82000F036FA04212E48AE
:100E3000FFF702FBC82000F02FFA0021FD2000F090
:100E400057F80021122000F053F80021AE2000F0E6
:100E50004FF80021D52000F04BF80021A02000F031
:100E600047F80021A82000F043F800213F2000F0BF
:100E70003FF80021D32000F03BF80021084600F0A5
:100E800037F80021402000F033F80021DA2000F08C
:100E90002FF80021122000F02BF80021812000F013
:100EA00027F800216F2000F023F80021D92000F05E
:100EB0001FF80021822000F01BF80021DB2000F049
:100EC00017F80021342000F013F80021A42000F0CE
:100ED0000FF80021A62000F00BF8FFF72AFF0021F1
:100EE000AF2000F005F808BD0008014000100140E7
:100EF00070B505460C46FFF76FFE782000F052F8FB
:100F0000FFF796FE1CB1402000F04CF802E00020F4
:100F100000F048F8FFF78CFE284600F043F8FFF792
:100F200087FEFFF773FE70BD2DE9F04106464FF0D6
:100F3000800800251EE005F1B001C8B20021FFF7CE
:100F4000D7FF00210846FFF7D3FF00211020FFF74D
:100F5000CFFF00240AE0C5F1070000EBC400375CB6
:100F600001213846FFF7C4FF601CC4B24445F2DBE0
:100F7000681CC5B2082DDEDBBDE8F08170470000BB
:100F800029B1064A92690243044B9A6104E0034A7C
:100F900092698243014B9A61704700000010024041
:100FA0007047000070B5044600251BE004F0800087
:100FB00020B180210D48FFF73FFA03E080210B4864
:100FC000FFF738FAFFF768FE20210848FFF734FAE8
:100FD000FFF762FE20210548FFF72CFA6006040E99
:100FE000681CC5B2082DE1DB70BD0000000801409F
:100FF00010B500F001F810BD0CB500200190009074
:101000003348006840F480303149086000BF304800
:10101000006800F4003000900198401C0190009896
:1010200018B90198B0F5A06FF1D12948006800F413
:10103000003010B10120009001E0002000900098E5
:10104000012843D12348006840F01000214908607E
:101050000846006820F0030008600846006840F079
:10106000020008601A48406819494860084640680C
:1010700048600846406840F4806048600846406820
:1010800020F47C1048600846406840F4E81048604E
:101090000846006840F08070086000BF0C48006897
:1010A00000F000700028F9D00948406820F00300E3
:1010B000074948600846406840F00200486000BFA9
:1010C0000348406800F00C000828F9D10CBD00006E
:1010D0000010024000200240042808D14FF0E02117
:1010E000096941F004014FF0E022116107E04FF07F
:1010F000E021096921F004014FF0E02211617047FD
:101100007047000010B51348006840F00100114915
:10111000086008464068104908400E494860084683
:1011200000680E4908400B4908600846006820F432
:10113000802008600846406820F4FE0048604FF4B4
:101140001F008860FFF754FF4FF0006004490860FB
:1011500010BD0000001002400000FFF8FFFFF6FE87
:1011600008ED00E010B540F225511D4800F03EF8B2
:1011700010B31B4800F064F8C4B21A48008800F4A9
:101180000040C8B91748008800F4804060B10A2CBC
:1011900003D000201349088020E01248008840F462
:1011A00000401049088019E00D2C06D10D48008838
:1011B00040F480400B49088010E00A480088C0F3E2
:1011C0000D0009490C5407480088401C0549088057
:1011D00008460088C72801DD0020088010BD0000F7
:1011E00000380140200000205000002070B5024669
:1011F000002400230025002040F66A16B14200D1E9
:1012000000BFC1F3421501F01F03012606FA03F3E4
:10121000012D02D19689334006E0022D02D1168AB3
:10122000334001E0968A33400C12012606FA04F49A
:101230001688344013B10CB1012000E0002070BDCD
:1012400001468888C0F30800704700BFFEE700BF72
:101250007047000010B56FF00400FFF73DFF0A482B
:1012600000680A49B0FBF1F00949087008460078A7
:1012700000EB4001C1EBC0104FF6FF7101EAC00066
:101280000449088010BD00002400002000127A00EC
:10129000180000201A0000200146114A12884A4313
:1012A0004FF0E0235A6100229A611A46126942F017
:1012B00001021A6100BF4FF0E022106900F0010244
:1012C0001AB100F48032002AF5D04FF0E022126902
:1012D00022F001024FF0E0231A6100229A61704768
:1012E0001A00002002E0C2B2044B1A80034A121F07
:1012F000128802F04002002AF5D0704704380140FD
:101300000EB5FFF7A7FF4FF4FA70FFF7C5FFFFF721
:1013100055FD0020FFF72EFD0020FFF739FDE0E02E
:101320007048FFF701FE4FF47A70FFF7B5FF4FF4F6
:10133000FA70FFF7B1FFFFF7FCFC6B48FFF7F4FD15
:101340004FF47A70FFF7A8FF4FF4FA70FFF7A4FF8D
:10135000FFF7EFFC00205A238022402100906348D1
:10136000FFF7A2FC6148FFF789FB0020FFF766F852
:10137000012003464FF6FF7201460090FFF79AFAEC
:10138000012003464FF6FF72402100908020FFF7B6
:1013900091FA012002234FF6FF72032100905020A2
:1013A000FFF788FA012003234FF6FF720521009012
:1013B0006420FFF77FFA012004234FF6FF72052116
:1013C00000903720FFF776FA002001214FF6FF72D8
:1013D0000F23CDE900210290052211461046FFF7A8
:1013E000FDF9002001214FF6FF721C23CDE90021F9
:1013F00002901E2205211046FFF7F0F9012000217E
:101400004FF6FF722D23CDE9002102901A460A21E2
:101410000846FFF7A3FA01204FF6FF72CDE900203E
:1014200023231A46142102900846FFF797FA012059
:1014300000214FF6FF730A22CDE900101921412047
:10144000FFF7CEF8012000904FF6FF730522192117
:1014500001904120FFF7C4F84FF6FF700090244B35
:1014600024A22D2101901420FFF7D4FA1F48FFF782
:1014700001F84FF47A70FFF70FFF4FF4FA70FFF79F
:101480000BFF0020FEF7DAFF4FF6FF700090184BBD
:101490001CA2192101901E20FFF7BCFA4FF6FF7025
:1014A00000901B4B1BA22D2101900F20FFF7B2FAD9
:1014B0004FF6FF7000901A4B1AA2002101900846C7
:1014C000FFF7A8FA0948FEF7D5FF4FF47A70FFF747
:1014D000E3FE4FF4FA70FFF7DFFEFFF72AFC00BFD0
:1014E000FEE71DE75C3400085C38000818010020A6
:1014F0000000002061626364656667303132333416
:1015000000000000426C61636B26576869746500D7
:1015100008000020322E3432204F4C454400000099
:10152000100000205345454E4752454154000000ED
:10153000000000000000000000000000001010107B
:101540001010000010000000006C4848000000006F
:1015500000000000001414287C287C285050000053
:101560000010384040384870101000000020502013
:101570000C700814080000000000001820205448D7
:1015800034000000001010101000000000000000E7
:10159000000808101010101010080800002020107B
:1015A000101010101020200000107C1028280000BF
:1015B000000000000000101010FE101010000000CD
:1015C00000000000000000181030200000000000A3
:1015D000007C00000000000000000000000000305F
:1015E0003000000000040408081010202040000013
:1015F0000038444444444444380000000030101093
:10160000101010107C000000003844040810204422
:101610007C00000000384404180404443800000032
:10162000000C141424447E040E000000003C202012
:101630003804044438000000001C2040784444442E
:1016400038000000007C4404080808101000000066
:1016500000384444384444443800000000384444CE
:10166000443C0408700000000000003030000030EE
:1016700030000000000000181800001830200000A2
:1016800000000C10608060100C00000000000000E2
:101690007C007C00000000000000C020180418201E
:1016A000C0000000000018240408100030000000F2
:1016B0003844444C54544C40443800000030102806
:1016C00028287C44EE00000000F844447844444458
:1016D000F8000000003C4440404040443800000016
:1016E00000F0484444444448F000000000FC4450EA
:1016F00070504044FC000000007E22283828202042
:1017000070000000003C4440404E4444380000005B
:1017100000EE44447C444444EE000000007C101081
:10172000101010107C000000003C080808484848D1
:101730003000000000EE444850704844E6000000CD
:1017400000702020202024247C00000000EE6C6C1F
:1017500054544444EE00000000EE64645454544C6D
:10176000EC00000000384444444444443800000085
:1017700000782424243820207000000000384444DD
:1017800044444444381C000000F84444447848442D
:10179000E200000000344C403804046458000000AB
:1017A00000FE9210101010103800000000EE4444AB
:1017B000444444443800000000EE444428282810E3
:1017C0001000000000EE444454545454280000001B
:1017D00000C6442810102844C600000000EE44282B
:1017E0002810101038000000007C4408101020441D
:1017F0007C000000003820202020202020203800FD
:1018000000402020201010080808000000380808B8
:1018100008080808080838000010102844000000D4
:10182000000000000000000000000000000000FEBA
:101830000010080000000000000000000000003858
:10184000443C44443E00000000C0405864444444CA
:10185000F80000000000003C444040443800000014
:10186000000C04344C4444443E00000000000038A6
:10187000447C40403C000000001C207C20202020B4
:101880007C000000000000364C4444443C04380016
:1018900000C0405864444444EE0000000010007052
:1018A000101010107C0000000010007808080808D4
:1018B0000808700000C0405C48705048DC00000020
:1018C00000301010101010107C000000000000E824
:1018D00054545454FE000000000000D864444444B2
:1018E000EE0000000000003844444444380000008A
:1018F000000000D8644444447840E0000000003612
:101900004C4444443C040E000000006C3020202075
:101910007C0000000000003C4438044478000000D3
:101920000000207C202020221C000000000000CCB1
:101930004444444C36000000000000EE4444282893
:1019400010000000000000EE445454542800000031
:10195000000000CC48303048CC000000000000EE11
:1019600044242818101078000000007C48102044FF
:101970007C0000000008101010102010101008004B
:101980000010101010101010101000000020101087
:101990001010081010102000000000000024580053
:1019A0000000000000000000000000000000000037
:1019B0000000000000000000000000000000000027
:1019C0000000000000000C000C000C000C000C00DB
:1019D0000C000C000C0000000C00000000000000D7
:1019E00000000000000000001DC01DC0088008802D
:1019F000088000000000000000000000000000005F
:101A00000000000000000D800D800D800D803FC0A3
:101A10001B003FC01B001B001B001B000000000040
:101A20000000000004001F803180318038001E005B
:101A30000F000380318031803F000400040000006B
:101A400000000000000018002400240018C00780D7
:101A50001E003180024002400180000000000000B2
:101A600000000000000000000F001800180018001F
:101A70000C001D80370033001D80000000000000B6
:101A80000000000000000000070007000200020044
:101A90000200000000000000000000000000000044
:101AA0000000000000000300030006000E000C0010
:101AB0000C000C000C000E000600030003000000E8
:101AC000000000000000180018000C0006000600CE
:101AD00006000600060006000C001C0018000000AE
:101AE000000000000000060006003FC03FC00F00DD
:101AF0001F801980000000000000000000000000AE
:101B000000000000000000000000040004000400C9
:101B10003F800400040004000000000000000000FA
:101B200000000000000000000000000000000000B5
:101B3000000000000000060004000C00080008007F
:101B40000000000000000000000000000000000095
:101B50003F800000000000000000000000000000C6
:101B60000000000000000000000000000000000075
:101B70000000000000000C000C000000000000004D
:101B80000000000000C000C00180018003000300CD
:101B900006000C000C001800180030003000000097
:101BA0000000000000000E001B00318031803180F9
:101BB0003180318031801B000E00000000000000E9
:101BC00000000000000006003E00060006000600BF
:101BD00006000600060006003FC0000000000000EE
:101BE0000000000000000F001980318031800300E8
:101BF00006000C00180030003F80000000000000CC
:101C00000000000000003F006180018003001F0011
:101C100003800180018061803F000000000000001F
:101C2000000000000000070007000F000B001B0071
:101C3000130033003F8003000F800000000000000D
:101C40000000000000001F801800180018001F008E
:101C500011800180018021801F0000000000000031
:101C600000000000000007801C0018003000370052
:101C700039803180318019800F00000000000000A1
:101C80000000000000007F00430003000600060083
:101C9000060006000C000C000C0000000000000014
:101CA0000000000000001F003180318031801F00E3
:101CB00031803180318031801F0000000000000041
:101CC0000000000000001E003300318031803380AE
:101CD0001D800180030007003C00000000000000A0
:101CE0000000000000000000000000000C000C00DC
:101CF0000000000000000C000C00000000000000CC
:101D000000000000000000000000000003000300CD
:101D100000000000000006000400080008000000A9
:101D2000000000000000000000C0030004001800D4
:101D3000600018000400030000C000000000000064
:101D400000000000000000000000000000007FC054
:101D500000007FC000000000000000000000000044
:101D600000000000000000006000180004000300F4
:101D700000C0030004001800600000000000000024
:101D800000000000000000001F0031803180018051
:101D900007000C000C0000000C0000000000000018
:101DA0000000000000000E001100210021002700AB
:101DB000290029002700200011000E00000000006B
:101DC00000000000000000003F000F000900198023
:101DD00019801F8030C030C079E000000000000092
:101DE00000000000000000007F0031803180318061
:101DF0003F003180318031807F0000000000000012
:101E000000000000000000001F4030C06040600083
:101E100060006000604030801F0000000000000093
:101E200000000000000000007F00318030C030C0A2
:101E300030C030C030C031807F00000000000000A2
:101E400000000000000000007F8030803080320001
:101E50003E003200308030807F80000000000000B3
:101E600000000000000000007FC030403040320021
:101E70003E003200300030007C0000000000000016
:101E800000000000000000001E80318060806000C3
:101E9000600067C0618031801F000000000000000A
:101EA00000000000000000007BC0318031803180E4
:101EB0003F803180318031807BC000000000000015
:101EC00000000000000000003FC006000600060001
:101ED00006000600060006003FC0000000000000EB
:101EE00000000000000000001FC00300030003000A
:101EF00003006300630063003E0000000000000078
:101F000000000000000000007BC03180330036007C
:101F10003C003E003300318079C00000000000002A
:101F200000000000000000007E00180018001800EB
:101F300018001840184018407FC000000000000042
:101F40000000000000000000E0E060C071C07BC045
:101F50006AC06EC064C060C0FBE00000000000000A
:101F6000000000000000000073C0318039803D8017
:101F70003580378033803180798000000000000098
:101F800000000000000000001F00318060C060C041
:101F900060C060C060C031801F0000000000000011
:101FA00000000000000000007F003180318031809F
:101FB00031803F00300030007E0000000000000053
:101FC00000000000000000001F00318060C060C001
:101FD00060C060C060C031801F000CC01F80000066
:101FE00000000000000000007F003180318031805F
:101FF0003E003300318031807CE0000000000000B2
:1020000000000000000000001F8031803180380097
:102010001F000380318031803F000000000000007D
:1020200000000000000000007F804C804C804C804D
:102030000C000C000C000C003F0000000000000031
:1020400000000000000000007BC031803180318042
:1020500031803180318031801F000000000000009D
:1020600000000000000000007BC0318031801B00B8
:102070001B001B000A000E000E0000000000000004
:102080000000000000000000FBE060C064C06EC003
:102090006EC02A803B803B80318000000000000041
:1020A00000000000000000007BC031801B000E001B
:1020B0000E000E001B0031807BC0000000000000FD
:1020C000000000000000000079E030C019800F001F
:1020D00006000600060006001F8000000000000049
:1020E00000000000000000003F8021802300060067
:1020F00004000C00188030803F80000000000000C9
:102100000000000000000780060006000600060030
:102110000600060006000600060006000780000014
:102120000000000030003000180018000C000C0007
:102130000600030003000180018000C000C0000011
:102140000000000000001E00060006000600060059
:102150000600060006000600060006001E0000003D
:102160000000000004000A000A0011002080208006
:10217000000000000000000000000000000000005F
:10218000000000000000000000000000000000004F
:10219000000000000000000000000000000000003F
:1021A0000000FFE008000400020000000000000042
:1021B000000000000000000000000000000000001F
:1021C0000000000000000000000000001F0001806F
:1021D00001801F80318033801DC00000000000009E
:1021E000000000000000700030003000370039802F
:1021F00030C030C030C039807700000000000000DF
:102200000000000000000000000000001E8031807F
:1022100060806000608031801F00000000000000CE
:102220000000000000000380018001801D803380D9
:1022300061806180618033801DC00000000000006B
:102240000000000000000000000000001F003180BE
:1022500060C07FC0600030C01F8000000000000030
:1022600000000000000007E00C000C003F800C00A4
:102270000C000C000C000C003F800000000000006F
:102280000000000000000000000000001DC03380BE
:1022900061806180618033801D80018001801F002A
:1022A000000000000000700030003000370039806E
:1022B00031803180318031807BC00000000000001F
:1022C0000000000000000600060000001E000600DE
:1022D00006000600060006003FC0000000000000E7
:1022E0000000000000000600060000003F000300A0
:1022F00003000300030003000300030003003E008B
:102300000000000000007000300030003780360010
:102310003C003C003600330077C0000000000000A5
:102320000000000000001E00060006000600060077
:1023300006000600060006003FC000000000000086
:102340000000000000000000000000007F8036C098
:1023500036C036C036C036C076E00000000000004F
:10236000000000000000000000000000770039803D
:1023700031803180318031807BC00000000000005E
:102380000000000000000000000000001F0031807D
:1023900060C060C060C031801F000000000000000D
:1023A00000000000000000000000000077003980FD
:1023B00030C030C030C039803700300030007C0081
:1023C0000000000000000000000000001DC033807D
:1023D00061806180618033801D800180018007C041
:1023E0000000000000000000000000007B801CC016
:1023F00018001800180018007F00000000000000FE
:102400000000000000000000000000001F8031807C
:102410003C001F00038031803F00000000000000EE
:102420000000000000001800180018007F001800CD
:1024300018001800180018800F00000000000000AD
:1024400000000000000000000000000073803180E8
:1024500031803180318033801DC0000000000000D9
:102460000000000000000000000000007BC0318080
:1024700031801B001B000E000E0000000000000059
:10248000000000000000000000000000F1E060C05B
:1024900064C06EC03B803B803180000000000000C3
:1024A0000000000000000000000000007BC01B00D6
:1024B0000E000E000E001B007BC00000000000009C
:1024C00000000000000000000000000079E030C0C3
:1024D000198019800B000F00060006000C003E005A
:1024E0000000000000000000000000003F8021808C
:1024F00003000E00180030803F8000000000000044
:1025000000000000000006000C000C000C000C0095
:102510000C0018000C000C000C000C000600000061
:10252000000000000000060006000600060006008D
:102530000600060006000600060006000600000071
:102540000000000000000C00060006000600060067
:102550000600030006000600060006000C0000004E
:102560000000000000000000000000000000180053
:1025700024800300000000000000000000000000B4
:10258000000000000000000000000000000000004B
:10259000000000000000000000000000000000003B
:1025A0000000000000000000000000000000070024
:1025B00007000700070007000700070002000200ED
:1025C00000000000070007000000000000000000FD
:1025D00000000000000000001CE01CE01CE00840BF
:1025E000084008400000000000000000000000005B
:1025F0000000000000000000000000000CC00CC043
:102600000CC00CC00CC03FF03FF00CC00CC03FF041
:102610003FF00CC00CC00CC00CC00CC0000000008F
:10262000000000000300030007E00FE0186018003E
:102630001F000FC000E0186018601FC01F8003005B
:1026400003000300000000000000000000001C0068
:102650002200220022001C6001E00F803C0031C0FB
:1026600002200220022001C0000000000000000043
:102670000000000000000000000003E00FE00C007C
:102680000C0006000F301FF019E018C01FF007B053
:10269000000000000000000000000000000000003A
:1026A000038003800380010001000100000000009E
:1026B000000000000000000000000000000000001A
:1026C00000000000000000C000C001800180018007
:1026D00003000300030003000300030001800180E6
:1026E000018000C000C000000000000000000C00DD
:1026F0000C000600060006000300030003000300B0
:10270000030003000600060006000C000C00000099
:102710000000000000000300030003001B601FE036
:10272000078007800FC00CC0000000000000000000
:102730000000000000000000000000000000000099
:10274000000003000300030003003FF03FF003001C
:102750000300030003000000000000000000000070
:102760000000000000000000000000000000000069
:1027700000000000000000000000038003000300D0
:102780000600060004000000000000000000000039
:10279000000000000000000000003FE03FE00000FB
:1027A0000000000000000000000000000000000029
:1027B0000000000000000000000000000000000019
:1027C0000000000000000000000003800380038080
:1027D0000000000000000000000000000060006039
:1027E00000C000C000C0018001800300030006009B
:1027F00006000C000C000C0018001800000000007F
:102800000000000000000F801FC018C03060306062
:102810003060306030603060306018C01FC00F80A2
:1028200000000000000000000000000000000300A5
:102830001F001F0003000300030003000300030048
:10284000030003001FE01FE0000000000000000084
:102850000000000000000F801FC038E03060006002
:1028600000C00180030006000C0018003FE03FE0BC
:1028700000000000000000000000000000000F80C9
:102880003FC030E0006000E007C007C000E000602B
:10289000006060E07FC03F8000000000000000009A
:1028A00000000000000001C003C003C006C00CC04F
:1028B0000CC018C030C03FE03FE000C003E003E0C0
:1028C00000000000000000000000000000001FC029
:1028D0001FC0180018001F801FC018E000600060B3
:1028E000006030E03FC01F800000000000000000DA
:1028F00000000000000003E00FE01E001800380098
:1029000037803FC038E03060306018E01FC007807B
:1029100000000000000000000000000000003FE098
:102920003FE03060006000C000C000C00180018056
:10293000018003000300030000000000000000000D
:102940000000000000000F801FC038E0306038E059
:102950001FC01FC038E03060306038E01FC00F80FB
:1029600000000000000000000000000000000F0058
:102970001FC038C03060306038E01FE00F6000E0FA
:1029800000C003C03F803E000000000000000000C7
:1029900000000000000000000000000000000380B4
:1029A0000380038000000000000003800380038098
:1029B0000000000000000000000000000000000017
:1029C00000000000000001C001C001C000000000C4
:1029D0000000038003000600060004000000000061
:1029E00000000000000000000000003000F003C004
:1029F00007001C0078001C00070003C000F0003036
:102A000000000000000000000000000000000000C6
:102A10000000000000007FF07FF0000000007FF069
:102A20007FF0000000000000000000000000000037
:102A30000000000000000000000030003C000F001B
:102A4000038000E0007800E003800F003C003000CD
:102A50000000000000000000000000000000000076
:102A60000F801FC018601860006001C00380030061
:102A70000000000007000700000000000000000048
:102A800000000000000003800C800840104010404F
:102A900011C012401240124011C01000080008403E
:102AA000078000000000000000000000000000009F
:102AB0001F801F80038006C006C00CC00C601FE092
:102AC0001FE03030787878780000000000000000C7
:102AD00000000000000000003F803FC01860186048
:102AE00018E01FC01FE01870183018303FF03FE0AA
:102AF00000000000000000000000000000000000D6
:102B000007B00FF01C70383030003000300030005B
:102B100038301C700FE007C000000000000000000B
:102B200000000000000000007F807FC030E03070B7
:102B30003030303030303030307030E07FC07F8027
:102B40000000000000000000000000000000000085
:102B50003FF03FF01830183019801F801F80198017
:102B6000183018303FF03FF0000000000000000077
:102B700000000000000000003FF03FF01830183067
:102B800019801F801F801980180018003F003F0027
:102B90000000000000000000000000000000000035
:102BA00007B01FF0187030303000300031F831F8C5
:102BB000303018301FF007C0000000000000000097
:102BC00000000000000000003CF03CF018601860BD
:102BD00018601FE01FE01860186018603CF03CF0BF
:102BE00000000000000000000000000000000000E5
:102BF0001FE01FE0030003000300030003000300C5
:102C0000030003001FE01FE00000000000000000C0
:102C1000000000000000000003F803F800600060FE
:102C20000060006030603060306030E03FC00F8096
:102C30000000000000000000000000000000000094
:102C40003EF83EF818E019801B001F001D8018C0D8
:102C500018C018603E783E380000000000000000F8
:102C600000000000000000003F003F000C000C00CE
:102C70000C000C000C000C300C300C303FF03FF01E
:102C80000000000000000000000000000000000044
:102C90007878787838703CF034B037B037B033306B
:102CA000333030307CF87CF8000000000000000079
:102CB000000000000000000039F03DF01C601E60C4
:102CC0001E601B601B6019E019E018E03EE03E60EA
:102CD00000000000000000000000000000000000F4
:102CE00007800FC01CE0387030303030303030306A
:102CF00038701CE00FC007800000000000000000DA
:102D000000000000000000003FC03FE018701830D5
:102D1000183018701FE01FC0180018003F003F0057
:102D200000000000000000000000000000000000A3
:102D300007800FC01CE03870303030303030303019
:102D400038701CE00FC0078007B00FF00CE00000E7
:102D500000000000000000003FC03FE01870183085
:102D600018701FE01FC018E0186018703E383E1839
:102D70000000000000000000000000000000000053
:102D80000FB01FF03870303038001F8007E000703F
:102D9000303038703FE037C0000000000000000015
:102DA00000000000000000003FF03FF033303330FF
:102DB0003330030003000300030003000FC00FC003
:102DC0000000000000000000000000000000000003
:102DD0003CF03CF0186018601860186018601860CB
:102DE00018601CE00FC00780000000000000000019
:102DF000000000000000000078F078F030603060E3
:102E000018C018C00D800D800D8007000700070056
:102E100000000000000000000000000000000000B2
:102E20007C7C7C7C301833983398339836D816D015
:102E30001C701C701C7018300000000000000000A6
:102E4000000000000000000078F078F0306018C04A
:102E50000D80070007000D8018C0306078F078F012
:102E60000000000000000000000000000000000062
:102E70003CF03CF018600CC00780078003000300A2
:102E8000030003000FC00FC000000000000000009E
:102E900000000000000000001FE01FE0186018C0E4
:102EA00001800300030006000C6018601FE01FE0B3
:102EB000000000000000000000000000000003C04F
:102EC00003C003000300030003000300030003002A
:102ED0000300030003000300030003C003C000005D
:102EE00000000000180018000C000C000C00060088
:102EF0000600030003000180018000C000C000C084
:102F000000600060000000000000000000000F00F2
:102F10000F0003000300030003000300030003008D
:102F2000030003000300030003000F000F00000074
:102F3000000000000000020007000D8018C0306093
:102F40002020000000000000000000000000000041
:102F50000000000000000000000000000000000071
:102F60000000000000000000000000000000000061
:102F70000000000000000000000000000000000051
:102F8000FFFCFFFC000004000300008000000000C4
:102F90000000000000000000000000000000000031
:102FA0000000000000000000000000000000000021
:102FB0000000000000000FC01FE000600FE01FE0F5
:102FC000386030E03FF01F7000000000000000009B
:102FD00000000000000070007000300030003780FA
:102FE0003FE0386030303030303038607FE077801C
:102FF00000000000000000000000000000000000D1
:1030000000000000000007B01FF018303030300022
:10301000300038301FF00FC000000000000000003A
:10302000000000000000007000700030003007B0A9
:103030001FF0187030303030303038701FF807B85B
:103040000000000000000000000000000000000080
:1030500000000000000007801FE018603FF03FF014
:10306000300018301FF007C0000000000000000012
:1030700000000000000003F007F0060006001FE05B
:103080001FE0060006000600060006001FE01FE025
:103090000000000000000000000000000000000030
:1030A00000000000000007B81FF818703030303002
:1030B000303018701FF007B0003000700FE00FC004
:1030C00000000000000038003800180018001BC085
:1030D0001FE01C6018601860186018603CF03CF03D
:1030E00000000000000000000000000000000300DD
:1030F0000300000000001F001F0003000300030086
:10310000030003001FE01FE00000000000000000BB
:1031100000000000000003000300000000001FC0CA
:103120001FC000C000C000C000C000C000C000C080
:1031300000C001C03F803F000000000000003800D8
:103140003800180018001BE01BE01B001E001E00CA
:103150001B00198039F039F0000000000000000069
:103160000000000000001F001F0003000300030018
:103170000300030003000300030003001FE01FE03F
:10318000000000000000000000000000000000003F
:103190000000000000007EE07FF033303330333039
:1031A000333033307BB87BB80000000000000000F3
:1031B00000000000000000000000000000003BC014
:1031C0003FE01C6018601860186018603CF03CF02C
:1031D00000000000000000000000000000000000EF
:1031E00000000000000007801FE018603030303021
:1031F000303018601FE00780000000000000000071
:1032000000000000000000000000000000007780C7
:103210007FE0386030303030303038603FE0378029
:10322000300030007C007C00000000000000000046
:1032300000000000000007B81FF818703030303070
:10324000303018701FF007B00030003000F800F880
:1032500000000000000000000000000000003CE052
:103260003DF00F300E000C000C000C003FC03FC0C2
:10327000000000000000000000000000000000004E
:1032800000000000000007E01FE018601E000FC0F3
:1032900001E018601FE01F80000000000000000037
:1032A00000000000000000000C000C000C003FE0DB
:1032B0003FE00C000C000C000C000C300FF007C0BD
:1032C00000000000000000000000000000000000FE
:1032D00000000000000038E038E018601860186056
:1032E000186018E01FF00F700000000000000000E0
:1032F000000000000000000000000000000078F066
:1033000078F0306018C018C00D800D8007000700ED
:1033100000000000000000000000000000000000AD
:1033200000000000000078F078F03260326037E092
:103330001DC01DC018C018C0000000000000000023
:1033400000000000000000000000000000003CF051
:103350003CF00CC00780030007800CC03CF03CF040
:10336000000000000000000000000000000000005D
:1033700000000000000078F078F0306018C018C03D
:103380000D800F800700060006000C007F007F0004
:1033900000000000000000000000000000001FE02E
:1033A0001FE018C00180030006000C601FE01FE052
:1033B000000000000000000000000000000001C04C
:1033C00003C00300030003000300030007000E0016
:1033D0000700030003000300030003C001C0000056
:1033E00000000000000003000300030003000300CE
:1033F00003000300030003000300030003000300B5
:1034000003000300030000000000000000001C0097
:103410001E000600060006000600060007000380E6
:10342000070006000600060006001E001C00000043
:10343000000000000000000000000000000000008C
:103440000E003F3033F001E00000000000000000FB
:10345000000000000000000000000000FFFFFFFF70
:10346000FFFFFFFFFFFFFFFFFFFFFFFFFFFFFFFF6C
:10347000FFFFFFFFFFFFFFFFFFFFFFFFFFFFFFFF5C
:10348000FFFFFFFFFFFFFFFFFFFFFFFFFFFFFFFF4C
:10349000FFFFFFFFFFFFFFFFFFFFFFFFFFFFFFFF3C
:1034A000FFFFFFFFFFFFFFFFFFFFFFFFFFFFFFFF2C
:1034B000FFFFFFFFFFFFFFFFFFE0FFFFFFFFFFFF3B
:1034C000FFE0FFFFFFFFFFFFFFEAFFFFFFFFFFFF40
:1034D000FFEAFFFFFFFFFFFFFFE2FFFFFFFFFFFF2E
:1034E000FFF4FFFFFFFFFFFFFFFFFFFFFFF99FFF5D
:1034F000FFE0FFFFFFF08FFFFFFFFFFFFFF0CFFFB9
:10350000FFFFFFFFFFF66FFFFFF0FFFFFFF66FFF0C
:10351000FFF4FFFFFFF26FFFFFF0FFFFFFF10FFF70
:10352000FFF8FFFFFFF90FFFFFFFFFFFFFFFFFFFA8
:10353000FFF8FFFFFFFFFFFFFFF2FFFFFFFFEFFFBF
:10354000FFF6FFFFFFF00FFFFFF2FFFFFFF00FFF9F
:10355000FFFFFFFFFFF26FFFFFFFFFFFFFF26FFFB5
:10356000FFE0FFFFFFF26FFFFFF9FFFFFFF26FFFCA
:10357000FFF0FFFFFFF26FFFFFFEFFFFFFFFEFFF18
:10358000FFFFFFFFFFFFFFFFFFE0FFFFFFFFFFFF6A
:10359000FFE2FFFFFFF00FFFFFE0FFFFFFF00FFF75
:1035A000FFE4FFFFFFF26FFFFFFCFFFFFFF26FFF83
:1035B000FFFEFFFFFFF26FFFFFE7FFFFFFF26FFF6E
:1035C000FFF1FFFFFFF26FFFFFFCFFFFFFFFEFFFC9
:1035D000FFE1FFFFFFFFFFFFFFE7FFFFFFFFFFFF31
:1035E000FFF0FFFFFFF00FFFFFFCFFFFFFF00FFFFB
:1035F000FFE1FFFFFFF8FFFFFFEFFFFFFFFC7FFF93
:10360000FFE0FFFFFFFE1FFFFFE0FFFFFFFF0FFFD9
:10361000FFF7FFFFFFF00FFFFFF3FFFFFFF00FFFCC
:10362000FFF8FFFFFFFFFFFFFFFFFFFFFFFFFFFFB1
:10363000FFE0FFFFFFFC3FFFFFE8FFFFFFF81FFF7A
:10364000FFFFFFFFFFF18FFFFFF0FFFFFFF3CFFF53
:10365000FFF0FFFFFFF7EFFFFFFFFFFFFFF76FFF39
:10366000FFF8FFFFFFF36FFFFFF0FFFFFFF34FFFD8
:10367000FFF6FFFFFFF90FFFFFF8FFFFFFFD1FFF42
:10368000FFFFFFFFFFFFFFFFFFFFFFFFFFFFFFFF4A
:10369000FFFFFFFFFFF00FFFFFFFFFFFFFF00FFF38
:1036A000FFFFFFFFFFF24FFFFFFFFFFFFFF27FFF74
:1036B000FFFFFFC0FFF27FFFFFFFFE00FFF23FFFB3
:1036C000FFFFF800FFF21FFFFFFF8000FFF08FFFFA
:1036D000FFFE0000FFF8EFFFFFF00000FFFFFFFF1D
:1036E000FFC00E00FFFFFFFFFF801F80FFF00FFFF6
:1036F000FF003180FFF00FFFFF003080FFF26FFF0F
:10370000FF002080FFF26FFFFFC02080FFF26FFFFD
:10371000FFF83180FFF26FFFFFF81980FFF26FFFB3
:10372000FFF80F00FFF26FFFFFF80000FFFFFFFF41
:10373000FFF80000FFFFFFFFFFF80000FFFF8FFF13
:10374000FFF80000FFFE0FFFFFF80000FFF83FFF4B
:10375000FFF80000FFF0BFFFFFF80000FFF1BFFF20
:10376000FFFC0000FFF03FFFFFFC1E00FFFC0FFF0F
:10377000FFFC3B00FFFF8FFFFFF83180FFFFEFFFF3
:10378000FFF02080FFFFFFFFFFC02080FFF7FFFF5B
:10379000FF802080FFF3FFFFFF003180FFF3FFFF7A
:1037A000FE001F00FFF3EFFFFF000F00FFF00FFF11
:1037B000FFC00000FFF00FFFFFF00000FFF3FFFF6E
:1037C000FFFC0000FFF3FFFFFFFF8000FFF7FFFF9C
:1037D000FFFFF000FFFFFFFFFFFFFF80FFFFFFFF86
:1037E000FFFFFFFEFFFFFFFFFFFFFFFFFFFFFFFFEA
:1037F000FFFFFFFFFFFFFFFFFFFFFFFFFFFFFFFFD9
:10380000FFFFFFFFFFFFFFFFFFFFFFFEFFFFFFFFC9
:10381000FFFFFFE0FFFFFFFFFFFFF400FFFFFFFFE1
:10382000FFFFC000FFFFFFFFFFFF8000FFFFFFFF64
:10383000FFFF8007FFFFFFFFFFFFC07FFFFFFFFFCE
:10384000FFFFFFFFFFFFFFFFFFFFFFFFFFFFFFFF88
:10385000FFFFFFFFFFFFFFFFFFFFFFFF0000000074
:103860000000000000000000000000000000000058
:103870000000000000000000000000000000000048
:103880000000000000000000000000000000000038
:103890000000000000000000000000000000000028
:1038A0000000000000000000000000000000000018
:1038B0000000000000000000000000000000000008
:1038C00000000000000000000000000000000000F8
:1038D0000000000000000000000000000180000067
:1038E0000000000001C000000000000000C0000057
:1038F0000C000000006000001C0030E000600000D0
:10390000180031E000300600300033A0003006001F
:10391000300037200018060060003E200018060026
:1039200060001C2000080600C0000000000C06011A
:10393000C00000600004060180000060000606036D
:103940000000006060020007000000003002000676
:10395000018003801C007FE0038007800E00FFF8D9
:1039600007000C800303FFFC0E001C800187FFFF93
:103970001C003FE000CFFFFF38003FE0004FFFFF9B
:1039800080000080001FFFFFC0000000001FFFFF3D
:10399000C00030E0003FFFFFC1F031E0003FFFFF1B
:1039A000C3F033A0003FFFFFC7F037207F3FFFFF8A
:1039B000CFF03E207F3FFFFF8FF01C20003FFFFF36
:1039C0001FF00000003FFFFC3FF00000003FFFE061
:1039D0003FF00000003FFFC1FFF00000001FFF0F9D
:1039E000FFF00000001FFE3FFFF03FE000CFFC7F34
:1039F000FFF03FE003C7F8FFFFF03FE00783F9FF68
:103A0000FFF000000E01F3FFFFF000000C00F3FFD9
:103A1000FFF007E0000207FFFFF00FE0000207FFE2
:103A2000FFF00C00000607FFFFF00C00000C07FF82
:103A3000FFF00FE0000807FFFFF007E0001807FFA6
:103A4000FFF00000003007FFFFF00000006007FFFC
:103A5000FFF007E0006007FFFFF00FE000C007FF86
:103A6000FFF00C6000C01FFFFFF00C6001803FFF03
:103A7000FFF00C6001807FFFFFF000000000FFFFFF
:103A8000FFF07FE00001FFFFFFF07FE00001FFFF9C
:103A9000FFF006000001FFFFFFF006000001FFFF3E
:103AA000FFF007E00001FFFFFFF007E00001FFFF6C
:103AB000FFF000000001FFFFFFF000000001FFFF2A
:103AC000FFF000000000FFFFFFF0000000007FFF9C
:103AD000FFF0000000007FFFFFF0000000003FFF4C
:103AE000FFF01FC000003FFFFFF03FE000001FFF9E
:103AF000FFF0306000001FFFFFF0306000000FFF9C
:103B0000FFF03060000007FFFFF03060000003FFAF
:103B1000FFF03FE0000003FFFFF01FC0000007FFC1
:103B2000FFF0000000000FFFFFF0000000000FFF9B
:103B3000FFF03FE000001FFFFFF03FE000001FFF2D
:103B4000FFF0006000001FFFFFF0006000001FFF9B
:103B5000FFF0006000001FFFFFF0006000000FFF9B
:103B6000FFF0000000000FFFFFF03FE0000007FF44
:103B7000FFF03FE0000003FFFFF03260000001FFB4
:103B8000FFF03260000000FFEFF032600000007FC5
:103B9000C7F000600000001F83F00000000000007C
:103BA00000F03FE00000000000003FE000000000E7
:103BB00000003060000000000000306000000000E5
:103BC00000003060000000000000306000000000D5
:103BD00000003FE00000000000001FC000000000E7
:103BE00000000000000000000000000000000000D5
:103BF00000000000000000000000000000000000C5
:103C000000000000000000000000000000000000B4
:103C100000000000000000000000000000000000A4
:103C20000000000000000000000000000000000094
:103C30000000000000000000000000000000000084
:103C40000000000000000000000000000000000074
:103C50000000000000000000000000007C3C0008A4
:103C600000000020380000006C010008B43C00088F
:103C700038000020400B00008801000830150008C3
:103C800007000C00A41900080B0010008425000890
:103C90000E00140000000000000000000000000002
:103CA00000A24A040000000000000000010203041A
:043CB00006070809F2
:0400000508000131BD
:00000001FF
